:100000000EC028C027C026C025C024C023C022C0DF
:1000100021C020C016C11EC01DC01CC01BC01124A1
:100020001FBECFE5D2E0DEBFCDBF10E0A0E6B0E05E
:10003000ECE1F9E002C005900D92A238B107D9F7C2
:1000400010E0A2E8B0E001C01D92AF3BB107E1F7BC
:1000500093D062C4D5CFF894B99AC19808B293E00E
:10006000262F2A95F1F780FB01F89695879508BA17
:10007000B9F71895B998282F80E8B199FECFF89470
:100080002150F1F7262FB19908948795C8F72A9542
:10009000F1F71895EF92FF920F931F93CF93DF9391
:1000A000E82EF62EE0E0F0E030E050E007E010E06F
:1000B000DA010E2E02C0B595A7950A94E2F7A17059
:1000C000BB27E801CE1BDF0B0C2E01C0AA0F0A9440
:1000D000EAF73A2B3196E830F10551F73295632F64
:1000E0006F708E2D807F682B862F90E0A0E0B0E0AF
:1000F000BA2FA92F982F8827307F4E2D4F70342B81
:10010000832BBA2FA92F982F8827822B6627782F29
:10011000892F9A2F6F29CDB7DEB7E6E05BC10F9329
:100120001F93C398C09840E050E0C0988B019C0199
:10013000042E04C036952795179507950A94D2F793
:1001400000FF02C0C49A01C0C498C09A4F5F5F4FBD
:100150004032510551F7C39AC3981F910F910895EA
:10016000CF93DF93EC018991882319F065E173DF68
:10017000FACFDF91CF910895A0E0B0E0E1ECF0E09C
:100180000CC180E886BD16BC8AB582608ABD83B783
:10019000826083BF89EF89BD89B7806189BF87B3DA
:1001A000896187BB7894D12C08E710E088E8E82EB5
:1001B00080E0F82E809182008823E1F389B78F7E5A
:1001C00089BF8D2D8770C82FD0E01F928F931F920B
:1001D0008D2D8695869586958F931F930F93FF920D
:1001E000EF9207D188E890E0BBDF8DB79EB7089605
:1001F0000FB6F8949EBF0FBE8DBF97E09D1530F0EF
:1002000065E18EE137DFC059DF4F08C08FE065E15F
:100210008D1530F08EE12EDFC859DF4F888308C07E
:100220008EE128DFC05ADF4F888396E19D1510F0DC
:10023000D39401C0D12C89B7806189BF109282000C
:10024000B9CF1F920F920FB60F9211242F933F93A5
:100250004F935F936F937F938F939F93AF93BF93CE
:10026000EF93FF93809187008F5F80938700809149
:1002700086008F5F80938600809184009091850036
:1002800001969093850080938400809184009091E2
:1002900085008938934178F0809183008F5F809347
:1002A000830080918300853110F0109283001092BA
:1002B00085001092840080918700883110F01092A0
:1002C000870080918600883010F01092860080911F
:1002D0008700873058F4E091860090918600F0E026
:1002E000E059FF4F2FEF4FEF60810EC080918700E4
:1002F0008F30C8F4E091860090918600F0E0E05ADB
:10030000FF4F20814FEF6FEF81E001C0880F9A957A
:10031000EAF7C0DE6093BB007093BC008093BD0021
:100320009093BE0011C080918700873150F4E09116
:10033000860090918600F0E0E859FF4F2FEF408152
:10034000E2CF81E08093820080918700873148F47A
:100350006091BB007091BC008091BD009091BE0087
:10036000DEDEFF91EF91BF91AF919F918F917F91D1
:100370006F915F914F913F912F910F900FBE0F9012
:100380001F9018952F923F924F925F926F927F929B
:100390008F929F92AF92BF92CF92DF92EF92FF9295
:1003A0000F931F93CF93DF93CDB7DEB7CA1BDB0B41
:1003B0000FB6F894DEBF0FBECDBF09942A883988E6
:1003C00048885F846E847D848C849B84AA84B984ED
:1003D000C884DF80EE80FD800C811B81AA81B981F9
:1003E000CE0FD11D0FB6F894DEBF0FBECDBFED010D
:1003F0000895AEE0B0E0EEEFF1E0D2CF0D891E89B6
:1004000086E08C831A8309838FEF9FE79E838D8319
:10041000AE01475E5F4F6F89788DCE01019608D09F
:10042000EF81F885E00FF11F10822E96E4E0D4CF23
:10043000ACE0B0E0EDE1F2E0A5CF7C016B018A0118
:10044000FC0117821682838181FFB0C1CE01019623
:100450004C01F7019381F60193FD859193FF819102
:100460006F01882309F49EC1853239F493FD85918B
:1004700093FF81916F01853221F4B70190E0B1D1F2
:10048000E8CF512C312C20E02032A0F48B3269F0DF
:1004900030F4803259F0833269F420612CC08D32FF
:1004A00039F0803339F4216026C02260246023C0F3
:1004B000286021C027FD27C030ED380F3A3078F48E
:1004C00026FF06C0852D6AE01ED2582E530E13C09B
:1004D000832D6AE018D2382E330E20620CC08E3283
:1004E00021F426FD5FC1206406C08C3611F420681B
:1004F00002C0883641F4F60193FD859193FF819106
:100500006F018111C1CF982F9F7D9554933028F4AE
:100510000C5F1F4FFFE3F9830DC0833631F0833743
:1005200071F0833509F057C021C0F80180818983BB
:100530000E5F1F4F44244394512C540114C03801C2
:10054000F2E06F0E711CF801A080B18026FF03C09D
:10055000652D70E002C06FEF7FEFC5012C8736D1AB
:100560002C0183012C852F77222E16C03801F2E052
:100570006F0E711CF801A080B18026FF03C0652DAD
:1005800070E002C06FEF7FEFC5012C8714D12C0102
:100590002C852068222E830123FC19C0832D90E036
:1005A00048165906A0F4B70180E290E01AD13A94B7
:1005B000F5CFF50127FC859127FE81915F01B701F9
:1005C00090E00FD131103A94F1E04F1A51084114E4
:1005D000510479F7DEC0843611F0893631F5F8011F
:1005E00027FF07C060817181828193810C5F1F4F5B
:1005F00008C060817181882777FD8095982F0E5FF4
:100600001F4F2F76B22E97FF09C090958095709559
:1006100061957F4F8F4F9F4F2068B22E2AE030E0C8
:10062000A40111D1A82EA81843C0853729F42F7E24
:10063000B22E2AE030E025C0F22FF97FBF2E8F3690
:10064000C1F018F4883579F0ADC0803719F08837DB
:1006500021F0A8C02F2F2061B22EB4FE0DC08B2D2B
:100660008460B82E09C024FF0AC09F2F9660B92E5F
:1006700006C028E030E005C020E130E002C020E103
:1006800032E0F801B7FE07C06081718182819381F9
:100690000C5F1F4F06C06081718180E090E00E5FAB
:1006A0001F4FA401D0D0A82EA818FB2DFF77BF2E76
:1006B000B6FE0BC02B2D2E7FA51450F4B4FE0AC03D
:1006C000B2FC08C02B2D2E7E05C07A2C2B2D03C02A
:1006D0007A2C01C0752C24FF0DC0FE01EA0DF11D1E
:1006E0008081803311F4297E09C022FF06C07394F3
:1006F000739404C0822F867809F0739423FD12C08E
:1007000020FF06C05A2C731418F4530C5718732C7E
:10071000731460F4B70180E290E02C8762D0739488
:100720002C85F6CF731410F4371801C0312C24FF38
:1007300011C0B70180E390E02C8753D02C8522FFB5
:1007400016C021FF03C088E590E002C088E790E072
:10075000B7010CC0822F867851F021FD02C080E2E3
:1007600001C08BE227FD8DE2B70190E03AD0A514DD
:1007700030F4B70180E390E034D05A94F8CFAA94D3
:10078000F401EA0DF11D8081B70190E02AD0A1109B
:10079000F6CF332009F45DCEB70180E290E021D09E
:1007A0003A94F7CFF7018681978102C08FEF9FEFD0
:1007B0002C96E2E103CEFC010590615070400110DF
:1007C000D8F7809590958E0F9F1F0895FC0161507A
:1007D000704001900110D8F7809590958E0F9F1F63
:1007E00008950F931F93CF93DF93182F092FEB01D9
:1007F0008B8181FD03C08FEF9FEF20C082FF10C06F
:100800004E815F812C813D81421753077CF4E88142
:10081000F9819F012F5F3F4F39832883108306C0E2
:10082000E885F985812F0995892B29F72E813F814C
:100830002F5F3F4F3F832E83812F902FDF91CF91EA
:100840001F910F910895FA01AA27283061F12031F4
:1008500091F1E8946F936E7F6E5F7F4F8F4F9F4F44
:10086000AF4FB1E040D0B4E03ED0670F781F891F92
:100870009A1FA11D680F791F8A1F911DA11D6A0F64
:10088000711D811D911DA11D22D009F468943F9115
:10089000062E000C3019000C000C3019305D31931D
:1008A000CEF6CF010895462F4770405D4193B3E0E7
:1008B0000FD0C9F7F6CF462F4F70405D4A3318F07E
:1008C000495D31FD4052419302D0A9F7EACFB4E02F
:1008D000A6959795879577956795BA95C9F70097E7
:1008E0006105710508959B01AC010A2E0694579588
:1008F000479537952795BA95C9F7620F731F841FDF
:10090000951FA01D0895002480FD060E660F11F0AE
:0C0910008695D1F7802D0895F894FFCF54
:10091C007F8888887F000000FFFFFFFFFFFFFFFF3D
:10092C00FFFFFFFFFFFFFFFF2D256425642D0A0D40
:02093C000000B9
:00000001FF
